:10020600090D010204083536373839030808050395
:03021600010BFFDA
:1000FB001201EED2A1D2A2D2A3D2B7D29BC29DD271
:10010B00B7D2A0D29B20A11B1201CC20A1157F013D
:10011B0012008F7F2C7E011201D0B2A47F1E7E00B5
:10012B001201D020A2141201CC20A20E7F2C7E0132
:10013B001201D0B2A57F0212008F20A3C61201CCF0
:10014B0020A3C07F2C7E011201D0B2A67B007A00C7
:09015B0079087F0312009580AAC7
:0401CC007F057E002D
:1001D000D3EF9400EE940040147D6E7C00ED1D7012
:0D01E000011CED4C70F7EF1F70E61E80E370
:0101ED0022EF
:1001EE00758920758DFD758BFDE4F5877598D0D2D8
:0801FE008EC299C298C29D2235
:06008F007B007A007908F5
:10009500E4F516D2B7D29BC2998F993099FDC299D2
:1000A500C2B7C2983098FD85990CC298E50CB50782
:1000B50006C2A0C29B80037F0022D2B7C29912015B
:1000C50064F5993099FDC299C2B7C2983098FD85FB
:1000D500990CE50CB50702D2A0C2983098FD9000A6
:1000E50001E5991201AA90000112017DB50702D21E
:0500F500A0C298D2B783
:0100FA0022E3
:03000000020003F8
:0C000300787FE4F6D8FD75811602004AF3
:10016400BB010689828A83E0225002E722BBFE0299
:09017400E32289828A83E49322CC
:10017D00BB010CE58229F582E5833AF583E0225037
:10018D0006E92582F8E622BBFE06E92582F8E22281
:0D019D00E58229F582E5833AF583E493229B
:1001AA00F8BB010DE58229F582E5833AF583E8F08B
:1001BA00225006E92582C8F622BBFE05E92582C837
:0201CA00F2221F
:10000F000200FBE493A3F8E493A34003F68001F20C
:10001F0008DFF48029E493A3F85407240CC8C333F2
:10002F00C4540F4420C8834004F456800146F6DFC1
:10003F00E4800B0102040810204080900206E47E49
:10004F00019360BCA3FF543F30E509541FFEE493B6
:10005F00A360010ECF54C025E060A840B8E493A37D
:10006F00FAE493A3F8E493A3C8C582C8CAC583CAA8
:10007F00F0A3C8C582C8CAC583CADFE9DEE780BE60
:0102190000E4
:00000001FF
