:08015B00010CFF03080102037F
:10000300D3EF9400EE940040147D6E7C00ED1D70E0
:0D001300011CED4C70F7EF1F70E61E80E33E
:0100200022BD
:10014500758920758DFD758BFDE4F5877598D0D281
:060155008EC299C298223F
:1000B200120145E4F50BD29DC2B7D2A0EB640360F6
:1000C200127F2C7E01120003C2B7C2983098FDAB9A
:1000D2009980E9B2A0C29DC299D2B77599033099AD
:1000E200FDC299C2B7C2983098FD859908C298D2CC
:1000F200B7C2998508993099FDC2998509993099B5
:0B010200FDC299C2B7E4FBD29D80B1A2
:0300230002010DCA
:10010D00C0E0C0D0E50B70163098FD85990CE50C5C
:10011D00B40309C29D750B01C2988002C298E50B0C
:10012D00B401103098FD859908750CFFD29D750BA3
:08013D0000C298D0D0D0E032DE
:03000000020026D5
:0C002600787FE4F6D8FD75810D02006DB6
:100032000200B2E493A3F8E493A34003F68001F232
:1000420008DFF48029E493A3F85407240CC8C333CF
:10005200C4540F4420C8834004F456800146F6DF9E
:10006200E4800B010204081020408090015BE47ED2
:10007200019360BCA3FF543F30E509541FFEE49393
:10008200A360010ECF54C025E060A840B8E493A35A
:10009200FAE493A3F8E493A3C8C582C8CAC583CA85
:1000A200F0A3C8C582C8CAC583CADFE9DEE780BE3D
:01016300009B
:00000001FF
